:100000000C9454000C9473000C9473000C947300C3
:100010000C9473000C9473000C9473000C94730094
:100020000C9473000C9473000C9473000C94730084
:100030000C9473000C94C0000C9473000C94730027
:100040000C9473000C9473000C9473000C94730064
:100050000C9473000C9473000C9473000C94730054
:100060000C9473000C9473000C9473000C94730044
:100070000C9473000C9473000C9473000C94730034
:100080000C9473000C9473000C9473007B01820138
:10009000AF01B601BD01C301F00197021C022202AB
:1000A000390250025A02650211241FBECFEFD0E47C
:1000B000DEBFCDBF11E0A0E0B1E0E8EDF5E000E08B
:1000C0000BBF02C007900D92A430B107D9F711E021
:1000D000A4E0B1E001C01D92AD30B107E1F70E948C
:1000E0009F020C94EA020C940000CF93DF93CDB7EB
:1000F000DEB781E890E02BE0FC01208388E890E007
:100100002DE730E0FC01318320838FE690E022E090
:10011000FC01208384E890E0FC0111821082809130
:10012000000190910101A0910201B091030180931F
:10013000050190930601A0930701B09308018FE594
:1001400090E02FE530E0F90120812068FC01208358
:10015000DF91CF910895CF93DF93CDB7DEB781E8DC
:1001600090E0FC011082DF91CF910895CF93DF934F
:10017000CDB7DEB781E080930401DF91CF91089580
:100180001F920F9200905F000F92112400905B006D
:100190000F922F933F934F935F936F937F938F9320
:1001A0009F93AF93BF93EF93FF93CF93DF93CDB71D
:1001B000DEB78091050190910601A0910701B091F1
:1001C00008010197A109B1098093050190930601E7
:1001D000A0930701B0930801809105019091060159
:1001E000A0910701B09108010097A105B10591F414
:1001F0000E94B6008091000190910101A09102013E
:10020000B09103018093050190930601A09307012B
:10021000B0930801DF91CF91FF91EF91BF91AF9122
:100220009F918F917F916F915F914F913F912F910E
:100230000F9000925B000F9000925F000F901F9054
:100240001895CF93DF9300D000D0CDB7DEB7698388
:100250007A838B839C8389819A81AB81BC818093D3
:10026000000190930101A0930201B09303018091DA
:10027000000190910101A0910201B09103018093CE
:10028000050190930601A0930701B09308010F9018
:100290000F900F900F90DF91CF910895CF93DF9340
:1002A00000D000D0CDB7DEB78C8385E290E0FC01B2
:1002B000808189838C8181708A838C81882F90E0F2
:1002C00082709927959587958B8380910B019091EA
:1002D0000C01CC01A0E0B0E040E050E026E030E0CE
:1002E000841B950B2817390708F490C08A5B9F4F31
:1002F000FC010C94E10281E090E090930C0180936A
:100300000B0184C08A81882351F48B81882339F4BE
:1003100084E090E090930C0180930B011FC08A81D0
:10032000813061F48B81882349F485E090E09093DB
:100330000C0180930B0110920A0110C08A8188235E
:1003400069F48B81813051F485E090E090930C0149
:1003500080930B0181E080930A0158C057C081E06F
:1003600090E090930C0180930B0150C081E090E0ED
:1003700090930C0180930B0149C081E090E0909331
:100380000C0180930B018A81813071F48B81813063
:1003900059F480910A01882339F482E090E0909327
:1003A0000C0180930B0110C08A81813069F48B812C
:1003B000813051F480910A01813031F483E090E082
:1003C00090930C0180930B01809109018A3039F4DC
:1003D00086E090E090930C0180930B0117C016C04B
:1003E0008A81813091F48B81813079F481E090E0D1
:1003F00090930C0180930B0164E670E080E090E044
:100400000E9421011092090100C0000080910B019F
:1004100090910C01CC01A0E0B0E040E050E026E07B
:1004200030E0841B950B2817390708F481C0835BE3
:100430009F4FFC010C94E10288E290E021E0FC0176
:10044000208376C01092090188E290E022E0FC014E
:10045000208385E290E0FC018081893049F0898128
:100460008F5F898385E290E02981FC01208360C051
:100470005FC01092090188E290E024E0FC01208333
:1004800085E290E0FC018081882349F089818150D8
:10049000898385E290E02981FC01208349C048C01E
:1004A00088E290E027E0FC01208385E290E0FC01F7
:1004B00010823EC0809109018F5F8093090188E21C
:1004C00090E028E0FC01208333C088E290E027E040
:1004D000FC01208368EE73E080E090E00E9421013F
:1004E00080910A01882379F485E290E0FC01808103
:1004F000893049F089818F5F898385E290E0298185
:10050000FC01208312C080910A01813071F485E2E0
:1005100090E0FC018081882341F0898181508983AA
:1005200085E290E02981FC012083000001C00000E9
:100530000F900F900F900F90DF91CF910895CF9370
:10054000DF931F92CDB7DEB781E290E0FC0110820D
:1005500082E290E02FEFFC01208384E290E02FEF15
:10056000FC01208385E290E027E0FC01208387E204
:1005700090E02FEFFC01208388E290E0FC011082E4
:1005800064E670E080E090E00E9421010E94750026
:1005900010920C0110920B0180E290E0FC0180812E
:1005A000898389810E944E0180E290E0FC01808174
:1005B00089830000809104018823E1F310920401F3
:1005C000F0CFEE0FFF1F0024001C0BBE0790F6912A
:0805D000E02D0994F894FFCF1F
:0405D800010000001E
:00000001FF
